:100000000FC033C032C031C030C02FC02EC02DC091
:100010002CC02BC02AC029C028C0D6C25BC2AA03EC
:1000200011241FBECFE5D2E0DEBFCDBF20E0A6E6A3
:10003000B0E001C01D92AD3AB207E1F710E0A0E6D2
:10004000B0E0E8EBF9E002C005900D92A636B107EA
:10005000D9F710E0C0E1D0E003C02197FE017FD3C3
:10006000CF30D107D1F7C9D2A5C4CACF2CEC37E025
:10007000615071098109910908F40895F9013197D6
:10008000F1F7F6CF8EB938E28BE220E2932F9A9502
:10009000F1F78DB9B29BFECF922F9A95F1F78DB9FA
:1000A000769BF4CF88E28A95F1F78FB19FEF9FB9E5
:1000B000B89A0895FF920F931F93CF93DF93162F53
:1000C000042F21E02093A500FC01208120FD03C026
:1000D00023E02093A500C29AB29BFECF28E22A9586
:1000E000F1F7C09820E22A95F1F7C298C09A779963
:1000F0000AC087E08093A50080E0DF91CF911F9137
:100100000F91FF900895EC01FF24FA948091A500CF
:10011000837019F1C29888818FB980EFB3DFB898E6
:100120008EEFB0DF80FF0CC09091A500892F817009
:1001300090FF02C086E0DECF95E09093A500DDCF72
:100140008091A5008E7F8093A500115021961111FA
:10015000DDCF01110EC081E0D0CFB89880EF92DFE3
:100160008883113021F4FFB88EEF8CDFEECF1FB8FB
:10017000FBCFC098C29AB29BFECF80E28A95F1F77E
:10018000C09A88E28A95F1F77599E5CF88E0809367
:10019000A500E1CF482F6091A80086E690E08ADFB5
:1001A0001092A7001092A8001092A600811110C012
:1001B0008091A500853041F0863021F0813031F406
:1001C00081E0089582E0089583E0089584E0089531
:1001D00080E00895C09AC29ABA9AB89A8FEF8FB900
:1001E0008AE28DB980EF8EB90895CF93DF93D091D5
:1001F000A6008091A8002091A700F0E0E0E0B0E028
:10020000A0E0E417F50778F5FB01C081DD2381F05C
:10021000803230F5E22FF0E0EA59FF4FC0832F5FC4
:10022000822FE1E0F0E0AE0FBF1FE1E0F0E0E9CFA8
:1002300030918700909186003F5F931B9F7081F003
:10024000909187009F5F9F70309186009317E1F334
:10025000E92FF0E0EA58FF4FC08390938700E1CF89
:10026000F0E0E0E0E0CF2093A7008093A800CD016C
:10027000DF91CF9108950F931F93CF93DF93E1E028
:10028000F0E02115310511F0E2E0F0E0EC01AC8185
:10029000BD81AE17BF0710F490E01EC0FA018B01BC
:1002A000A981BA81488191E09093A600440F4093C0
:1002B00066009093A7009093A800232B99F441E047
:1002C00050E0B80189819A8190DF019729F781E098
:1002D00061DF91E08111E0CF892FDF91CF911F91F4
:1002E0000F910895309759F341E050E0BF01CD01DF
:1002F0007CDF019789F6E3CFCF93DF93EC018B810D
:10030000882399F0988181E08093A600990F9093BB
:1003100066008093A7008093A8003CDF91E08111E4
:1003200090E0892FDF91CF9108951092A70010924D
:10033000A8001092A6004EDF81E08B83CE01DCDFA7
:10034000982F8111DFCFEDCF6F927F928F929F9286
:10035000AF92BF92CF92DF92EF92FF920F931F93D3
:10036000CF93DF936C015A01790130E020E050E037
:1003700040E081DF982E882309F47DC010E000E082
:1003800088248394F60184819581E701C01BD10BF9
:100390008C179D0708F4EC016C2E7C2E7394F601EB
:1003A0008081880F81608093660041E0C7018C1BCB
:1003B0009D0B0817190708F440E0672D86E690E0CA
:1003C00079DE8092A70081111BC08092A8008C1753
:1003D0001D0609F050C05091A800C501800F911F63
:1003E000DC0141E09D01281B390B2C173D0758F516
:1003F000552351F0541320C02FEF3FEF2D93F2CF30
:100400007092A800862DE3CF3091A4002091A30024
:10041000231B2F7089F33091A4002091A300321781
:10042000E1F3E091A400EF5FEF70E093A400F0E04F
:10043000EA59FF4F2081E2CFE42FF0E0EA59FF4F65
:1004400020814F5FDBCF4093A7000C0F1D1F0E15BF
:100450001F0508F497CF892DDF91CF911F910F9140
:10046000FF90EF90DF90CF90BF90AF909F908F90D4
:100470007F906F900895912CEECFCF93DF9300D0B3
:100480001F92CDB7DEB78B8322E030E0AE014F5F25
:100490005F4FBE016D5F7F4F80918A0090918B000E
:1004A00053DF89819A819827892798270F900F9089
:1004B0000F90DF91CF9108959CB59F7D9CBD8111D8
:1004C00005C08FB7F894C4988FBF08958FB7F8947C
:1004D000C49AFACF1F920F920FB60F9211242F9346
:1004E0008F939F93EF93FF9380918800823009F45C
:1004F0005EC078F4882349F1813009F43EC0FF9151
:10050000EF919F918F912F910F900FBE0F901F90A1
:100510001895843009F451C048F1853081F784E0A2
:10052000809388009FB18091A3008F5F8F7020918E
:10053000A400281709F446C08093A300E091A3000B
:10054000F0E0EA59FF4F90830BC08FB1882319F078
:100550008FB1869571F4789B07C081E08093880005
:100560001FB8B89A8EE721C084E0F8CF8FB18823F6
:1005700021F0B89888EA8DB917C0809186009091D3
:1005800087009817B1F3809186008F5F8F708093FA
:100590008600E0918600F0E0EA58FF4F80818FB935
:1005A00082E080938800B89A80E78EB9A8CF83E074
:1005B00080938800B8981FB8D5CF85E080938800D5
:1005C000B898F2CFB898CECF1F920F920FB60F9275
:1005D00011248F9310928800B898B29B04C0B09BEE
:1005E000FCCF88EA01C088EF8DB980EF8EB98F917A
:1005F0000F900FBE0F901F901895CF93DF9300D0F0
:10060000CDB7DEB783E08ABD83BF789480E48CBD2C
:100610008FEF8DBD87EC80BF86E886B98FB7F894E1
:10062000BC9A8FBF04E010E080E046DF60E971E033
:1006300080E090E01BDD81E03FDF60E971E080E079
:1006400090E014DD0150110979F783E080938C006C
:1006500080918A0090918B00009709F022D186E06A
:1006600090E083D08C0187E7F801808389E890E0EF
:1006700092838183138280E290E095838483109338
:100680008B0000938A001092A7001092A80010928D
:10069000A600A0DD81E0F8018383C8012DDE882358
:1006A00009F455C080ED8A8321E030E0AE014F5F50
:1006B0005F4FBE016E5F7F4F80918A0090918B00EB
:1006C00043DE8981853509F042C08AEAD6DE9093FF
:1006D0008E0080938D008CEAD0DE90939000809302
:1006E0008F008EEACADE909392008093910080EB97
:1006F000C4DE90939E0080939D0082EBBEDE9093BB
:10070000A00080939F0084EBB8DE9093A2008093BA
:10071000A10086EBB2DE909394008093930088EB67
:10072000ACDE90939600809395008AEBA6DE9093C2
:100730009800809397008CEBA0DE90939A008093B2
:1007400099008EEB9ADE90939C0080939B0080E052
:10075000B3DEFFCF10928B0010928A000895EE0F47
:10076000FF1F0590F491E02D09940F931F93CF93F1
:10077000DF938230910510F482E090E0E091AB00CD
:10078000F091AC0030E020E0B0E0A0E0309799F4C8
:100790002115310509F44AC0281B390B24303105D5
:1007A000D8F58A819B816115710589F1FB019383DD
:1007B0008283FE0111C0408151810281138148175B
:1007C0005907E0F04817590799F4109761F012960D
:1007D0000C93129713961C933296CF01DF91CF9111
:1007E0001F910F9108950093AB001093AC00F4CFCC
:1007F0002115310551F04217530738F0A901DB01EB
:100800009A01BD01DF01F801C1CFEF01F9CF90934B
:10081000AC008093AB00CDCFFE01E20FF31F8193BC
:1008200091932250310939832883D7CF2091A90091
:100830003091AA00232B41F4209162003091630093
:100840003093AA002093A9002091600030916100AC
:100850002115310541F42DB73EB740916400509108
:100860006500241B350BE091A900F091AA00E21766
:10087000F307A0F42E1B3F0B2817390778F0AC01C3
:100880004E5F5F4F2417350748F04E0F5F1F5093A0
:10089000AA004093A900819391939FCFF0E0E0E0FC
:1008A0009CCFCF93DF930097E9F0FC01329713823E
:1008B0001282A091AB00B091AC00ED0130E020E0DD
:1008C0001097A1F420813181820F931F2091A900FC
:1008D0003091AA002817390709F061C0F093AA00E7
:1008E000E093A900DF91CF910895EA01CE17DF07C9
:1008F000E8F54A815B819E0141155105B1F7E90197
:10090000FB83EA8349915991C40FD51FEC17FD076A
:1009100061F4808191810296840F951FE90199838A
:100920008883828193819B838A83F0E0E0E0129642
:100930008D919C9113970097B9F52D913C9111974A
:10094000CD010296820F931F2091A9003091AA0039
:100950002817390739F6309751F51092AC001092EC
:10096000AB00B093AA00A093A900BCCFD383C283ED
:1009700040815181840F951FC817D90761F44E5FDC
:100980005F4F88819981480F591F518340838A8125
:100990009B81938382832115310509F0B0CFF093B9
:1009A000AC00E093AB009ECFFD01DC01C0CF138211
:0809B0001282D7CFF894FFCFAB
:0609B8000000AD0080000C
:00000001FF
